{
  "contractName": "Gaming",
  "abi": [
    {
      "inputs": [],
      "payable": true,
      "stateMutability": "payable",
      "type": "constructor"
    },
    {
      "anonymous": false,
      "inputs": [
        {
          "indexed": false,
          "internalType": "address",
          "name": "funder",
          "type": "address"
        },
        {
          "indexed": false,
          "internalType": "uint256",
          "name": "amount",
          "type": "uint256"
        }
      ],
      "name": "GameFunded",
      "type": "event"
    },
    {
      "anonymous": false,
      "inputs": [
        {
          "indexed": false,
          "internalType": "address",
          "name": "player",
          "type": "address"
        },
        {
          "indexed": false,
          "internalType": "uint256",
          "name": "amount",
          "type": "uint256"
        },
        {
          "indexed": false,
          "internalType": "uint256",
          "name": "mysteryNumber",
          "type": "uint256"
        },
        {
          "indexed": false,
          "internalType": "uint256",
          "name": "displayedNumber",
          "type": "uint256"
        }
      ],
      "name": "PlayerLost",
      "type": "event"
    },
    {
      "anonymous": false,
      "inputs": [
        {
          "indexed": false,
          "internalType": "address",
          "name": "player",
          "type": "address"
        },
        {
          "indexed": false,
          "internalType": "uint256",
          "name": "amount",
          "type": "uint256"
        },
        {
          "indexed": false,
          "internalType": "uint256",
          "name": "mysteryNumber",
          "type": "uint256"
        },
        {
          "indexed": false,
          "internalType": "uint256",
          "name": "displayedNumber",
          "type": "uint256"
        }
      ],
      "name": "PlayerWon",
      "type": "event"
    },
    {
      "anonymous": false,
      "inputs": [
        {
          "indexed": false,
          "internalType": "uint256",
          "name": "wager",
          "type": "uint256"
        },
        {
          "indexed": false,
          "internalType": "uint256",
          "name": "playerNumber",
          "type": "uint256"
        },
        {
          "indexed": false,
          "internalType": "uint256",
          "name": "mysteryNumber",
          "type": "uint256"
        },
        {
          "indexed": false,
          "internalType": "bool",
          "name": "guess",
          "type": "bool"
        },
        {
          "indexed": false,
          "internalType": "string",
          "name": "result",
          "type": "string"
        }
      ],
      "name": "RoundComplete",
      "type": "event"
    },
    {
      "anonymous": false,
      "inputs": [
        {
          "indexed": false,
          "internalType": "uint256",
          "name": "wager",
          "type": "uint256"
        },
        {
          "indexed": false,
          "internalType": "uint256",
          "name": "playerNumber",
          "type": "uint256"
        },
        {
          "indexed": false,
          "internalType": "uint256",
          "name": "mysteryNumber",
          "type": "uint256"
        },
        {
          "indexed": false,
          "internalType": "bool",
          "name": "guess",
          "type": "bool"
        },
        {
          "indexed": false,
          "internalType": "string",
          "name": "result",
          "type": "string"
        }
      ],
      "name": "RoundComplete4",
      "type": "event"
    },
    {
      "payable": true,
      "stateMutability": "payable",
      "type": "fallback"
    },
    {
      "constant": true,
      "inputs": [],
      "name": "losses",
      "outputs": [
        {
          "internalType": "uint256",
          "name": "",
          "type": "uint256"
        }
      ],
      "payable": false,
      "stateMutability": "view",
      "type": "function"
    },
    {
      "constant": true,
      "inputs": [
        {
          "internalType": "address",
          "name": "",
          "type": "address"
        }
      ],
      "name": "players",
      "outputs": [
        {
          "internalType": "uint256",
          "name": "wins",
          "type": "uint256"
        },
        {
          "internalType": "uint256",
          "name": "losses",
          "type": "uint256"
        }
      ],
      "payable": false,
      "stateMutability": "view",
      "type": "function"
    },
    {
      "constant": true,
      "inputs": [],
      "name": "wins",
      "outputs": [
        {
          "internalType": "uint256",
          "name": "",
          "type": "uint256"
        }
      ],
      "payable": false,
      "stateMutability": "view",
      "type": "function"
    },
    {
      "constant": false,
      "inputs": [],
      "name": "getWins",
      "outputs": [
        {
          "internalType": "uint256",
          "name": "",
          "type": "uint256"
        }
      ],
      "payable": true,
      "stateMutability": "payable",
      "type": "function"
    },
    {
      "constant": false,
      "inputs": [],
      "name": "getLosses",
      "outputs": [
        {
          "internalType": "uint256",
          "name": "",
          "type": "uint256"
        }
      ],
      "payable": true,
      "stateMutability": "payable",
      "type": "function"
    },
    {
      "constant": false,
      "inputs": [],
      "name": "getLosses333",
      "outputs": [
        {
          "internalType": "uint256",
          "name": "",
          "type": "uint256"
        }
      ],
      "payable": true,
      "stateMutability": "payable",
      "type": "function"
    },
    {
      "constant": true,
      "inputs": [
        {
          "internalType": "uint256",
          "name": "number",
          "type": "uint256"
        },
        {
          "internalType": "uint256",
          "name": "display",
          "type": "uint256"
        },
        {
          "internalType": "bool",
          "name": "guess",
          "type": "bool"
        }
      ],
      "name": "determineWinner",
      "outputs": [
        {
          "internalType": "bool",
          "name": "",
          "type": "bool"
        }
      ],
      "payable": false,
      "stateMutability": "pure",
      "type": "function"
    },
    {
      "constant": false,
      "inputs": [
        {
          "internalType": "uint256",
          "name": "display",
          "type": "uint256"
        },
        {
          "internalType": "bool",
          "name": "guess",
          "type": "bool"
        }
      ],
      "name": "winOrLose",
      "outputs": [
        {
          "internalType": "bool",
          "name": "",
          "type": "bool"
        },
        {
          "internalType": "uint256",
          "name": "",
          "type": "uint256"
        }
      ],
      "payable": true,
      "stateMutability": "payable",
      "type": "function"
    },
    {
      "constant": false,
      "inputs": [
        {
          "internalType": "uint256",
          "name": "display",
          "type": "uint256"
        },
        {
          "internalType": "bool",
          "name": "guess",
          "type": "bool"
        }
      ],
      "name": "winOrLose4",
      "outputs": [
        {
          "internalType": "bool",
          "name": "",
          "type": "bool"
        },
        {
          "internalType": "uint256",
          "name": "",
          "type": "uint256"
        }
      ],
      "payable": true,
      "stateMutability": "payable",
      "type": "function"
    },
    {
      "constant": false,
      "inputs": [
        {
          "internalType": "uint256",
          "name": "display",
          "type": "uint256"
        },
        {
          "internalType": "bool",
          "name": "guess",
          "type": "bool"
        }
      ],
      "name": "winOrLose3",
      "outputs": [
        {
          "internalType": "bool",
          "name": "",
          "type": "bool"
        },
        {
          "internalType": "uint256",
          "name": "",
          "type": "uint256"
        }
      ],
      "payable": true,
      "stateMutability": "payable",
      "type": "function"
    },
    {
      "constant": false,
      "inputs": [],
      "name": "winOrLose2",
      "outputs": [
        {
          "internalType": "uint256",
          "name": "",
          "type": "uint256"
        }
      ],
      "payable": true,
      "stateMutability": "payable",
      "type": "function"
    },
    {
      "constant": false,
      "inputs": [],
      "name": "withdrawFunds",
      "outputs": [],
      "payable": false,
      "stateMutability": "nonpayable",
      "type": "function"
    },
    {
      "constant": false,
      "inputs": [],
      "name": "fundGame",
      "outputs": [],
      "payable": true,
      "stateMutability": "payable",
      "type": "function"
    }
  ],
  "bytecode": "0x6080604052336000806101000a81548173ffffffffffffffffffffffffffffffffffffffff021916908373ffffffffffffffffffffffffffffffffffffffff1602179055506001600060146101000a81548160ff021916908315150217905550600060018190555060006002819055506112178061007e6000396000f3fe6080604052600436106100c25760003560e01c80637844a3ba1161007f578063c775539c11610059578063c775539c146102a6578063e169bf6c146102c4578063e2eb41ff146102ce578063fc541ef31461033a576100c2565b80637844a3ba14610211578063940c97aa1461026a578063c3aabf2d14610288576100c2565b8063171273a5146100c457806324600fc31461012d57806324de908d1461014457806330d450291461016f57806335e1983e146101c85780636f22d6a5146101e6575b005b3480156100d057600080fd5b50610113600480360360608110156100e757600080fd5b810190808035906020019092919080359060200190929190803515159060200190929190505050610393565b604051808215151515815260200191505060405180910390f35b34801561013957600080fd5b50610142610402565b005b34801561015057600080fd5b506101596104f0565b6040518082815260200191505060405180910390f35b6101a76004803603604081101561018557600080fd5b81019080803590602001909291908035151590602001909291905050506104f6565b60405180831515151581526020018281526020019250505060405180910390f35b6101d0610858565b6040518082815260200191505060405180910390f35b3480156101f257600080fd5b506101fb610862565b6040518082815260200191505060405180910390f35b6102496004803603604081101561022757600080fd5b8101908080359060200190929190803515159060200190929190505050610868565b60405180831515151581526020018281526020019250505060405180910390f35b610272610bca565b6040518082815260200191505060405180910390f35b610290610cf4565b6040518082815260200191505060405180910390f35b6102ae610cfe565b6040518082815260200191505060405180910390f35b6102cc610d08565b005b3480156102da57600080fd5b5061031d600480360360208110156102f157600080fd5b81019080803573ffffffffffffffffffffffffffffffffffffffff169060200190929190505050610e1a565b604051808381526020018281526020019250505060405180910390f35b6103726004803603604081101561035057600080fd5b8101908080359060200190929190803515159060200190929190505050610e3e565b60405180831515151581526020018281526020019250505060405180910390f35b60006001151582151514156103c957828411156103b357600190506103fb565b828410156103c457600090506103fb565b6103fa565b6000151582151514156103f957828411156103e757600090506103fb565b828410156103f857600190506103fb565b5b5b5b9392505050565b6000809054906101000a900473ffffffffffffffffffffffffffffffffffffffff1673ffffffffffffffffffffffffffffffffffffffff163373ffffffffffffffffffffffffffffffffffffffff16146104a7576040517f08c379a00000000000000000000000000000000000000000000000000000000081526004018080602001828103825260218152602001806111c26021913960400191505060405180910390fd5b3373ffffffffffffffffffffffffffffffffffffffff166108fc479081150290604051600060405180830381858888f193505050501580156104ed573d6000803e3d6000fd5b50565b60015481565b60008060011515600060149054906101000a900460ff16151514610582576040517f08c379a00000000000000000000000000000000000000000000000000000000081526004018080602001828103825260168152602001807f5468652067616d65206973206e6f74206f6e6c696e650000000000000000000081525060200191505060405180910390fd5b343373ffffffffffffffffffffffffffffffffffffffff16311161060e576040517f08c379a00000000000000000000000000000000000000000000000000000000081526004018080602001828103825260128152602001807f496e73756666696369656e742066756e6473000000000000000000000000000081525060200191505060405180910390fd5b60006106186111a0565b90506000610627828787610393565b90506000600360003373ffffffffffffffffffffffffffffffffffffffff1673ffffffffffffffffffffffffffffffffffffffff16815260200190815260200160002090506001151582151514156107815760018160000160008282540192505081905550600180600082825401925050819055503373ffffffffffffffffffffffffffffffffffffffff166108fc600234029081150290604051600060405180830381858888f193505050501580156106e5573d6000803e3d6000fd5b507f05bb7924248cee9db500cb69e17c14e314413ba322759d375d60e1cbbff7809034888589604051808581526020018481526020018381526020018215151515815260200180602001828103825260038152602001807f776f6e00000000000000000000000000000000000000000000000000000000008152506020019550505050505060405180910390a160018394509450505050610851565b60001515821515141561084d576001816001016000828254019250508190555060016002600082825401925050819055507f72a8200ca7e7c30b1e73b9308514c0e4bc4b499c6cc862c03a87d43e8245176834888589604051808581526020018481526020018381526020018215151515815260200180602001828103825260048152602001807f6c6f7374000000000000000000000000000000000000000000000000000000008152506020019550505050505060405180910390a160008394509450505050610851565b5050505b9250929050565b6000600254905090565b60025481565b60008060011515600060149054906101000a900460ff161515146108f4576040517f08c379a00000000000000000000000000000000000000000000000000000000081526004018080602001828103825260168152602001807f5468652067616d65206973206e6f74206f6e6c696e650000000000000000000081525060200191505060405180910390fd5b343373ffffffffffffffffffffffffffffffffffffffff163111610980576040517f08c379a00000000000000000000000000000000000000000000000000000000081526004018080602001828103825260128152602001807f496e73756666696369656e742066756e6473000000000000000000000000000081525060200191505060405180910390fd5b600061098a6111a0565b90506000610999828787610393565b90506000600360003373ffffffffffffffffffffffffffffffffffffffff1673ffffffffffffffffffffffffffffffffffffffff1681526020019081526020016000209050600115158215151415610af35760018160000160008282540192505081905550600180600082825401925050819055503373ffffffffffffffffffffffffffffffffffffffff166108fc600234029081150290604051600060405180830381858888f19350505050158015610a57573d6000803e3d6000fd5b507f05bb7924248cee9db500cb69e17c14e314413ba322759d375d60e1cbbff7809034888589604051808581526020018481526020018381526020018215151515815260200180602001828103825260038152602001807f776f6e00000000000000000000000000000000000000000000000000000000008152506020019550505050505060405180910390a160018394509450505050610bc3565b600015158215151415610bbf576001816001016000828254019250508190555060016002600082825401925050819055507f05bb7924248cee9db500cb69e17c14e314413ba322759d375d60e1cbbff7809034888589604051808581526020018481526020018381526020018215151515815260200180602001828103825260048152602001807f6c6f7374000000000000000000000000000000000000000000000000000000008152506020019550505050505060405180910390a160008394509450505050610bc3565b5050505b9250929050565b600060011515600060149054906101000a900460ff16151514610c55576040517f08c379a00000000000000000000000000000000000000000000000000000000081526004018080602001828103825260168152602001807f5468652067616d65206973206e6f74206f6e6c696e650000000000000000000081525060200191505060405180910390fd5b343373ffffffffffffffffffffffffffffffffffffffff163111610ce1576040517f08c379a00000000000000000000000000000000000000000000000000000000081526004018080602001828103825260128152602001807f496e73756666696369656e742066756e6473000000000000000000000000000081525060200191505060405180910390fd5b6000610ceb6111a0565b90508091505090565b6000600154905090565b6000600254905090565b6000809054906101000a900473ffffffffffffffffffffffffffffffffffffffff1673ffffffffffffffffffffffffffffffffffffffff163373ffffffffffffffffffffffffffffffffffffffff1614610dad576040517f08c379a00000000000000000000000000000000000000000000000000000000081526004018080602001828103825260218152602001806111c26021913960400191505060405180910390fd5b7f5c963fd7fde519af29d56159e6e3e18db4e5d3e4716c39c87958cf9e4862ed583334604051808373ffffffffffffffffffffffffffffffffffffffff1673ffffffffffffffffffffffffffffffffffffffff1681526020018281526020019250505060405180910390a1565b60036020528060005260406000206000915090508060000154908060010154905082565b60008060011515600060149054906101000a900460ff16151514610eca576040517f08c379a00000000000000000000000000000000000000000000000000000000081526004018080602001828103825260168152602001807f5468652067616d65206973206e6f74206f6e6c696e650000000000000000000081525060200191505060405180910390fd5b343373ffffffffffffffffffffffffffffffffffffffff163111610f56576040517f08c379a00000000000000000000000000000000000000000000000000000000081526004018080602001828103825260128152602001807f496e73756666696369656e742066756e6473000000000000000000000000000081525060200191505060405180910390fd5b6000610f606111a0565b90506000610f6f828787610393565b90506000600360003373ffffffffffffffffffffffffffffffffffffffff1673ffffffffffffffffffffffffffffffffffffffff16815260200190815260200160002090506001151582151514156110c95760018160000160008282540192505081905550600180600082825401925050819055503373ffffffffffffffffffffffffffffffffffffffff166108fc600234029081150290604051600060405180830381858888f1935050505015801561102d573d6000803e3d6000fd5b507f05bb7924248cee9db500cb69e17c14e314413ba322759d375d60e1cbbff7809034888589604051808581526020018481526020018381526020018215151515815260200180602001828103825260038152602001807f776f6e00000000000000000000000000000000000000000000000000000000008152506020019550505050505060405180910390a160018394509450505050611199565b600015158215151415611195576001816001016000828254019250508190555060016002600082825401925050819055507f05bb7924248cee9db500cb69e17c14e314413ba322759d375d60e1cbbff7809034888589604051808581526020018481526020018381526020018215151515815260200180602001828103825260048152602001807f6c6f7374000000000000000000000000000000000000000000000000000000008152506020019550505050505060405180910390a160008394509450505050611199565b5050505b9250929050565b6000806001600a600143034060001c816111b657fe5b06019050809150509056fe4f6e6c79206f776e65722063616e2063616c6c20746869732066756e6374696f6ea265627a7a7231582043f4c610e317db564d9514aaddb58492abba54f8ce4934ecc968016910402aad64736f6c63430005100032",
  "source": "pragma solidity 0.5.16;\n\ncontract Gaming {\n    /* Our Online gaming contract */\n    address owner;\n    bool online;\n\n    uint public wins;    /* public didnt allow me any advantage */\n    uint public losses;\n \n    struct Player {\n        uint wins;\n        uint losses;\n    }\n\n    mapping (address => Player) public players;\n    \n    function getWins() external payable returns ( uint ) { \n\treturn wins;\n    }\n    \n    function getLosses() external payable returns ( uint ) { \n\treturn losses;\n    }\n\n\n    function getLosses333() public payable returns ( uint ) { \n\treturn losses;\n    }\n\n    constructor() public payable {\n        owner = msg.sender;\n        online = true;\n\twins = 0;\n\tlosses = 0;\n    }\n\n    modifier isOwner() {\n        require(msg.sender == owner, \"Only owner can call this function\");\n        _;\n    }\n\n    event PlayerWon(address player, uint amount, uint mysteryNumber, uint displayedNumber);\n    event PlayerLost(address player, uint amount, uint mysteryNumber, uint displayedNumber);\n\n    event GameFunded(address funder, uint amount);\n\n    function mysteryNumber() private view returns (uint) {\n        uint randomNumber = uint(blockhash(block.number-1))%10 + 1;\n        return randomNumber;\n    }\n\n    function determineWinner(uint number, uint display, bool guess) public pure returns (bool) {\n        if (guess == true) {\n            if (number > display) {\n                return true;\n            }\n            if (number < display) {\n                return false;\n            }\n        } else if (guess == false) {\n            if (number > display) {\n                return false;\n            }\n            if (number < display) {\n                return true;\n            }\n        }\n    }\n\n    event RoundComplete(uint wager, uint playerNumber, uint mysteryNumber, bool guess, string result);\n    function winOrLose(uint display, bool guess) external payable returns (bool, uint) {\n        /* Use true for a higher guess, false for a lower guess */\n        require(online == true, \"The game is not online\");\n        require(msg.sender.balance > msg.value, \"Insufficient funds\");\n        uint mysteryNumber_ = mysteryNumber();\n        bool isWinner = determineWinner(mysteryNumber_, display, guess);\n        Player storage player = players[msg.sender];\n        if (isWinner == true) {\n            /* Player won */\n            player.wins += 1;\n\t    wins += 1;\n            msg.sender.transfer(msg.value * 2);\n            emit RoundComplete(msg.value, display, mysteryNumber_, guess, \"won\");\n            return (true, mysteryNumber_);\n        } else if (isWinner == false) {\n            /* Player lost */\n            player.losses += 1;\n\t    losses += 1;\n            emit RoundComplete(msg.value, display, mysteryNumber_, guess, \"lost\");\n            return (false, mysteryNumber_);\n        }\n    }\n\n    event RoundComplete4(uint wager, uint playerNumber, uint mysteryNumber, bool guess, string result);\n    function winOrLose4(uint display, bool guess) external payable returns (bool, uint) {\n        /* Use true for a higher guess, false for a lower guess */\n        require(online == true, \"The game is not online\");\n        require(msg.sender.balance > msg.value, \"Insufficient funds\");\n        uint mysteryNumber_ = mysteryNumber();\n        bool isWinner = determineWinner(mysteryNumber_, display, guess);\n        Player storage player = players[msg.sender];\n        if (isWinner == true) {\n            /* Player won */\n            player.wins += 1;\n\t    wins += 1;\n            msg.sender.transfer(msg.value * 2);\n            emit RoundComplete(msg.value, display, mysteryNumber_, guess, \"won\");\n            return (true, mysteryNumber_);\n        } else if (isWinner == false) {\n            /* Player lost */\n            player.losses += 1;\n\t    losses += 1;\n            emit RoundComplete4(msg.value, display, mysteryNumber_, guess, \"lost\");\n            return (false, mysteryNumber_);\n        }\n    }\n\n\n\n\n\n\n\n\n   function winOrLose3(uint display, bool guess) external payable returns (bool, uint) {\n        /* Use true for a higher guess, false for a lower guess */\n        require(online == true, \"The game is not online\");\n        require(msg.sender.balance > msg.value, \"Insufficient funds\");\n        uint mysteryNumber_ = mysteryNumber();\n        bool isWinner = determineWinner(mysteryNumber_, display, guess);\n        Player storage player = players[msg.sender];\n        if (isWinner == true) {\n            /* Player won */\n            player.wins += 1;\n\t    wins += 1;\n            msg.sender.transfer(msg.value * 2);\n            emit RoundComplete(msg.value, display, mysteryNumber_, guess, \"won\");\n            return (true, mysteryNumber_);\n        } else if (isWinner == false) {\n            /* Player lost */\n            player.losses += 1;\n\t    losses += 1;\n            emit RoundComplete(msg.value, display, mysteryNumber_, guess, \"lost\");\n            return (false, mysteryNumber_);\n        }\n    }\n\n    function winOrLose2() external payable returns ( uint) {\n        /* Use true for a higher guess, false for a lower guess */\n        require(online == true, \"The game is not online\");\n        require(msg.sender.balance > msg.value, \"Insufficient funds\");\n        uint mysteryNumber_ = mysteryNumber();\n \treturn (mysteryNumber_);\n\n\n     }\n\n\n\n\n\n\n\n    function withdrawFunds() public isOwner {\n        msg.sender.transfer(address(this).balance);\n    }\n\n    function fundGame() public isOwner payable {\n        emit GameFunded(msg.sender, msg.value);\n    }\n\n    function() external payable {\n    }\n\n}\n",
  "sourcePath": "/home/ubuntu/packt/contracts/Gaming.sol",
  "compiler": {
    "name": "solc",
    "version": "0.5.16+commit.9c3226ce.Emscripten.clang"
  },
  "schemaVersion": "3.2.3",
  "updatedAt": "2022-01-06T19:10:37.232Z",
  "networkType": "ethereum",
  "devdoc": {
    "methods": {}
  },
  "userdoc": {
    "methods": {}
  }
}